:020000040800F2
:100000000000022035380008B1370008B337000877
:10001000B5370008B7370008B937000800000000FE
:10002000000000000000000000000000BB370008D6
:10003000BD37000800000000BF370008C1370008C6
:10004000853800088538000885380008853800089C
:10005000853800088538000885380008853800088C
:10006000853800088538000885380008853800087C
:10007000853800088538000885380008853800086C
:10008000853800088538000885380008853800085C
:10009000853800088538000885380008853800084C
:1000A000853800088538000885380008853800083C
:1000B000853800088538000885380008853800082C
:1000C000853800088538000885380008853800081C
:1000D000853800088538000885380008853800080C
:1000E00085380008853800080000000085380008C1
:1000F00085380008853800088538000885380008EC
:1001000085380008853800088538000885380008DB
:1001100085380008853800088538000885380008CB
:1001200085380008853800088538000885380008BB
:1001300085380008853800088538000885380008AB
:1001400000000000000000000000000000000000AF
:10015000853800088538000885380008853800088B
:10016000853800088538000885380008853800087B
:100170008538000885380008853800080000000030
:10018000853800088538000885380008853800085B
:10019000853800088538000885380008853800084B
:1001A000853800088538000885380008853800083B
:1001B000853800088538000885380008853800082B
:1001C000853800088538000885380008853800081B
:1001D000853800088538000885380008853800080B
:1001E00085380008853800088538000885380008FB
:1001F00085380008853800088538000885380008EB
:1002000085380008853800088538000885380008DA
:1002100085380008853800088538000885380008CA
:10022000853800088538000885380008000000007F
:10023000853800088538000800000000853800086F
:10024000853800088538000885380008853800089A
:10025000853800088538000885380008853800088A
:10026000853800088538000885380008853800087A
:10027000853800088538000885380008000000002F
:1002800085380008000000008538000800000000E4
:080290000000000085380008A1
:1002980010B5054C237833B9044B13B10448AFF3B8
:1002A80000800123237010BD100000200000000012
:1002B800D038000808B5034B1BB103490348AFF316
:1002C800008008BD0000000014000020D03800089D
:1002D80053B94AB9002908BF00281CBF4FF0FF31A5
:1002E8004FF0FF3000F072B9ADF1080C6DE904CEA3
:1002F80000F006F8DDF804E0DDE9022304B07047F9
:100308002DE9F047089E04468846002B4BD18A42C7
:10031800154667D9B2FA82F24AB1C2F1200701FA4A
:1003280002F320FA07F7954047EA030894404FEA9A
:10033800154E230CB8FBFEF71FFA85FC0EFB178839
:1003480043EA084307FB0CF1994209D9EB1807F176
:10035800FF3080F01B81994240F21881023F2B4404
:100368005B1AA4B2B3FBFEF00EFB103344EA03445D
:1003780000FB0CFCA44509D92C1900F1FF3380F0CF
:100388000781A44540F2048102382C4440EA074022
:10039800A4EB0C0400271EB1D4400023C6E9004397
:1003A8003946BDE8F0878B4209D9002E00F0EB8072
:1003B8000027C6E9000138463946BDE8F087B3FA98
:1003C80083F7002F47D18B4202D3824200F2FA8092
:1003D800841A61EB030301209846002EE0D0C6E999
:1003E8000048DDE702B9FFDEB2FA82F2002A40F0E7
:1003F8008F80491B4FEA154E1FFA85F80127B1FB7C
:10040800FEFC230C0EFB1C1143EA014308FB0CF114
:10041800994207D9EB180CF1FF3002D2994200F249
:10042800CD808446591AA3B2B1FBFEF00EFB10141E
:1004380043EA044408FB00F8A04507D92C1900F149
:10044800FF3302D2A04500F2B6801846A4EB080498
:1004580040EA0C409FE7C7F1200CBB4022FA0CFE93
:100468004EEA030E01FA07F420FA0CF521FA0CF310
:100478004FEA1E482543B3FBF8F92C0C08FB193347
:100488001FFA8EFA44EA034309FB0AF49C4202FA73
:1004980007F200FA07F10BD91EEB030309F1FF304D
:1004A80080F087809C4240F28480A9F1020973445D
:1004B8001B1BADB2B3FBF8F008FB103345EA03444D
:1004C80000FB0AFAA24508D91EEB040400F1FF3329
:1004D8006BD2A24569D90238744440EA0940A0FBAE
:1004E8000289A4EB0A044C45C2464B4654D351D06A
:1004F800002E69D0B1EB0A0564EB030404FA0CFC86
:10050800FD40FC404CEA0505C6E90054002747E7D2
:10051800C2F1200320FA03F7954001FA02F021FA0C
:1005280003F34FEA154E3843010CB3FBFEF71FFAED
:1005380085F80EFB173341EA034107FB08F38B42AA
:1005480004FA02F407D9691807F1FF3C2FD28B424D
:100558002DD9023F2944CB1A81B2B3FBFEF00EFB22
:10056800103341EA034100FB08F38B4207D96918AD
:1005780000F1FF3C17D28B4215D902382944C91A19
:1005880040EA07473BE73746304609E70746E7E6CC
:100598001846FBE64145ABD2B8EB020A69EB0E02FE
:1005A80001381346A4E76046E9E7184695E7674629
:1005B800D1E781467CE702382C4447E7ACF1020CCE
:1005C8002B442FE7384608E73746E9E6704700BF6F
:1005D80010B504460E4B18784FF47A73B3FBF0F35A
:1005E8000C4A1068B0FBF3F000F090F868B90F2CD3
:1005F80001D901200AE0002221464FF0FF3000F027
:1006080053F8034B5C60002000E0012010BD00BFE0
:10061800000000200800002010B5032000F032F888
:100628000020FFF7D5FF10B10124204610BD044675
:1006380003F020F8F9E70000034B1B78034A116820
:100648000B441360704700BF000000202C000020FE
:10065800014B1868704700BF2C00002038B50446CD
:10066800FFF7F6FF0546B4F1FF3F02D0044B1B78B5
:100678001C44FFF7EDFF401BA042FAD338BD00BF72
:10068800000000200649CB6823F4E0631B041B0C20
:10069800000200F4E0600343024A1A43CA6070474C
:1006A80000ED00E00000FA0530B4154BDB68C3F339
:1006B8000223C3F10704042C28BF04241D1D062DA2
:1006C80014D9033B4FF0FF3505FA04F421EA04017D
:1006D800994005FA03F322EA03031943002807DBCC
:1006E8000901C9B2074B195430BC70470023E9E728
:1006F80000F00F000901C9B2034B1954F4E700BF19
:1007080000ED00E000E400E014ED00E00138B0F195
:10071800807F0AD2064B5860064AF02182F82310DF
:100728000020986007221A6070470120704700BFB8
:1007380010E000E000ED00E0042805D0054A136849
:1007480023F0040313607047024A136843F004035C
:100758001360704710E000E0704708B5FFF7FCFF32
:1007680008BD000030B4446BC4660268D2F8843017
:100778007A490B4043EA8403C2F884300268D2F80D
:10078800843023F47F03846B43EA0443C2F8843043
:10079800C36E826B1A4402670468D4F888300B4031
:1007A80043EA8203C4F888300268D2F8883023F418
:1007B8007F03C46B43EA0443C2F88830036FC26BFB
:1007C80003EB420242670468D4F8A0300B4043EAC6
:1007D8008203C4F8A0300368D3F8A02022F4FE02F4
:1007E800046C42EA0442C3F8A020436F026C446CD4
:1007F80004FB023383670468D4F8B02022F0FC02BB
:1008080042EA8302C4F8B0200368D3F8B02022F487
:10081800FE02846C42EA0442C3F8B020836F826C03
:10082800C46C04FB0233C3670468D4F8AC2022F01C
:10083800FC0242EA8302C4F8AC20C26F036D446D27
:1008480004FB0322C0F880200468D4F8F0300B4081
:1008580043EA8203C4F8F0300268D2F8F03023F497
:100868007C13816D43EA0143C2F8F030D0F8803040
:10087800826D03EB4202C0F884200168D1F8C030D1
:1008880023F0FC0343EA8203C1F8C0300268D2F8BF
:10089800C03023F47C13C16D43EA0143C2F8C03071
:1008A800D0F88420C36D816E01FB0323C0F8883023
:1008B8000268D2F8C03023F07C53016E43EA01632A
:1008C800C2F8C030436B264A1A449200C266836B52
:1008D80002EB83030367C16B03EBC1034367046C3B
:1008E800416C01FB04F103EB81038367846CC16CE9
:1008F80001FB04F103EB8103C367046D416D01FB48
:1009080004F103EB8103C0F88030816D03EBC10370
:10091800C0F88430C46D856E05FB04F403EB8403D2
:10092800C0F88830016E01FB05F103EB8103C0F8C4
:1009380090300C498B420AD9D0F8983043F0200304
:10094800C0F89830012007E0002342F8043BD0F8B3
:1009580090309342F8D8002030BC70470300FFFF66
:10096800002B0010FCB5004070B44C68ECB90D6960
:100978008C6825430C6845EA84450E6ACC6944EACC
:1009880006648E6934434E693443CE683443D0F8E4
:100998008460806E03FB00F306EB830046F8235067
:1009A80000F108054460002015E00D698C682543B6
:1009B8000C68254345F08045DFE71418E678A378EE
:1009C8001B0443EA0663647843EA0423145C234364
:1009D8002B6004300435CB89034CE35C8342ECD8AC
:1009E800002070BC704700BFE8380008002800F0FD
:1009F800258138B504460368914A93421FD094F87C
:100A0800943003B32268936923F010039361FFF7CE
:100A18001FFE054623689A6912F0080F19D0FFF7E0
:100A280017FE401B0A28F5D9D4F8983043F0010383
:100A3800C4F89830032384F89430012038BD03F5B6
:100A480080734360DBE784F89530204602F054FE5B
:100A5800D8E79A6942F001029A61FFF7F9FD054665
:100A680023689A6912F0010F0FD1FFF7F1FD401BBF
:100A78000A28F5D9D4F8983043F00103C4F898301F
:100A8800032384F894300120D8E79A6942F00202DF
:100A98009A61237C012B36D02268936943F0400386
:100AA8009361637C012B34D02268936923F48043DB
:100AB8009361A37C012B32D02268936943F480535D
:100AC80093612268936923F44073A1680B4393618F
:100AD800E368012B29D0002B2CD0022B00F0918049
:100AE8002268936943F0800393612268136943F095
:100AF80010031361E368032B1CD12268936943F048
:100B08002003936116E02268936923F04003936100
:100B1800C7E72268936943F480439361C9E7226871
:100B2800936923F480539361CBE72268936943F078
:100B380004039361A3695A1EE369013B1B0243EA5C
:100B48004263226A013A13436269013A216843EA1F
:100B58000243CB61A368B3F5407F58D0236E33B10D
:100B68002268D2F8C030616E0B43C2F8C030E36D22
:100B7800226ED3420BD02168D1F8C83023F0070386
:100B8800A06E304A0244127C1343C1F8C830236C6B
:100B98005BB12168D1F8BC3023F00703606C294AA7
:100BA8000244127C1343C1F8BC30A36C63B12168C2
:100BB800D1F8BC3023F07003E06C224A0244127C66
:100BC80043EA0213C1F8BC30236D63B12168D1F840
:100BD800BC3023F4E063606D1A4A0244127C43EA95
:100BE8000223C1F8BC302268154B9A4220D0204617
:100BF800FFF7B8FD0020C4F89800012384F894306A
:100C08001CE72268936943F02003936192E7A36A83
:100C1800013BE26A013A43EA0223226B013A43EAC2
:100C28000213626A013A216843EA0243CB6095E7FE
:100C38006268936823F003039360D8E70120704744
:100C480000A00040E838000890F89430DBB2012B8F
:100C580007D0D0F8983043F00403C0F8983001204A
:100C68007047022380F894300268936923F00103E7
:100C780093610023C0F898301846704738B590F84B
:100C88009430DBB2022B07D0D0F8983043F0080339
:100C9800C0F89830012038BD0368D3F8C04014F07C
:100CA8007C5F0CD0D3F8C44014F4001F0FD0D0F8E8
:100CB800983043F02003C0F898300120EBE7D0F8D3
:100CC800983043F02003C0F898300120E3E7054648
:100CD800D3F8C440C4F304442346FFF745FE2A680A
:100CE800012303FA04F4C2F8D0400020D3E700003F
:100CF80000230F2B00F2E980F0B482B03DE0092216
:100D080000E00022B2403A430234704E46F82420F4
:100D18006F4A1468EA4302EA04064F6817F4803FF2
:100D280001D045EA04066A4C2660666802EA0604B1
:100D38004F6817F4003F01D045EA0604644E74601A
:100D48004FF0B044246802EA04064F6817F4801F85
:100D580001D045EA04064FF0B0442660646822409A
:100D68004E6816F4001F01D045EA04024FF0B04463
:100D7800626001330F2B00F2A58001229A400C68B3
:100D880004EA0205AA42F4D14C68122C18BF022CBE
:100D980010D1DE08083650F826C003F00704A70073
:100DA8000F24BC402CEA040C0C69BC4044EA0C0437
:100DB80040F8264004685F000326BE40F64306EA72
:100DC800040C4C6804F00304BC4044EA0C040460BE
:100DD8004C6804F1FF3C112C18BFBCF1010F01D97C
:100DE800122C11D1846806EA040CCC68BC4044EA91
:100DF8000C048460446824EA020C4C68C4F30012B2
:100E08009A4042EA0C024260C26816408A68BA40B8
:100E18003243C2604A6812F0805FAAD02D4AD2F8E5
:100E2800F44044F00204C2F8F440D2F8F42002F08E
:100E380002020192019A9C08A61C244A52F82670C4
:100E480003F0030296000F22B24027EA0207224A63
:100E580090423FF456AF02F58062904222D002F5EC
:100E68008062904220D002F5806290421ED002F546
:100E7800806290421CD002F5806290421AD002F53E
:100E88008062904218D002F58062904216D002F536
:100E98008062904214D002F5806290423FF42FAFF6
:100EA8000A222FE701222DE702222BE7032229E756
:100EB800042227E7052225E7062223E7072221E760
:100EC80008221FE702B0F0BC7047704700040058C2
:100ED8008000005800440258000002580AB94183B3
:100EE800704701837047000038B50446036813F063
:100EF800010F2AD0AC4B1B6903F03803102B1BD011
:100F0800A94B1B6903F03803182B0FD06368B3F59E
:100F1800803F44D0002B58D1A34B1A6822F480326A
:100F28001A601A6822F480221A603DE09E4B9B6A80
:100F380003F00303022BE9D19B4B1B6813F4003F1A
:100F480003D06368002B00F08382236813F0020F3C
:100F580000F09480944B1B6913F0380F60D0924BCB
:100F68001B6903F03803182B55D0E368002B00F0F9
:100F7800BD808D490A6822F0190213430B60FFF700
:100F880067FB0546884B1B6813F0040F40F09E80F2
:100F9800FFF75EFB401B0228F4D903205DE2824A7A
:100FA800136843F48033136063682BB3FFF750FB77
:100FB80005467D4B1B6813F4003FC6D1FFF748FB7D
:100FC800401B6428F5D9032047E2B3F5A02F09D0C8
:100FD800754B1A6822F480321A601A6822F480224B
:100FE8001A60E1E7704B1A6842F480221A601A68A6
:100FF80042F480321A60D7E7FFF72AFB05466A4BAE
:101008001B6813F4003FA0D0FFF722FB401B6428A5
:10101800F5D9032021E2644B9B6A13F0030FA4D196
:10102800614B1B6813F0040F03D0E368002B00F03A
:1010380011825D4A136823F01903E1680B431360BA
:10104800FFF706FB0546584B1B6813F0040F06D143
:10105800FFF7FEFA401B0228F5D90320FDE15248AC
:10106800436823F47C3321694FF47C3292FAA2F26C
:10107800B2FA82F201FA02F213434360236813F0D2
:10108800100F66D0484B1B6903F03803082B47D074
:10109800454B1B6903F03803182B3BD0E369002B41
:1010A80000F08480404A136843F080031360FFF720
:1010B800CFFA05463C4B1B6813F4807F64D1FFF7D9
:1010C800C7FA401B0228F5D90320C6E13648436811
:1010D80023F47C3321694FF47C3292FAA2F2B2FAFB
:1010E80082F201FA02F213434360C7E72E4A1368FB
:1010F80023F001031360FFF7ABFA05462A4B1B6880
:1011080013F0040FBAD0FFF7A3FA401B0228F5D951
:101118000320A2E1244B9B6A03F00303012BBDD1FA
:10112800214B1B6813F4807F04D0E369802B01D026
:10113800012092E11C48436823F0F843216A4FF0EC
:10114800F84292FAA2F2B2FA82F201FA02F21343D8
:101158004360236813F0080F50D06369002B39D01F
:10116800114A536F43F001035367FFF771FA0546BD
:101178000D4B5B6F13F0020F40D1FFF769FA401B6C
:101188000228F5D9032068E10748436823F0F843AB
:10119800216A4FF0F84292FAA2F2B2FA82F201FA08
:1011A80002F213434360D4E700440258AC4A136880
:1011B80023F080031360FFF74BFA0546A84B1B6822
:1011C80013F4807FC5D0FFF743FA401B0228F5D9F6
:1011D800032042E1A24A536F23F001035367FFF74C
:1011E80037FA05469E4B5B6F13F0020F06D0FFF7E8
:1011F8002FFA401B0228F5D903202EE1236813F0AB
:10120800200F29D0A3699BB1954A136843F48053F2
:101218001360FFF71DFA0546914B1B6813F4005F36
:101228001AD1FFF715FA401B0228F5D9032014E15B
:101238008B4A136823F480531360FFF709FA0546B5
:10124800874B1B6813F4005F06D0FFF701FA401BB9
:101258000228F5D9032000E1236813F0040F21D1F7
:10126800636A002B00F0F8807D4A126902F03802A8
:10127800182A00F0F380022B75D0794A136823F0FE
:1012880080731360FFF7E4F90446754B1B6813F08D
:10129800007F00F0DB80FFF7DBF9001B0228F4D9A0
:1012A8000320DAE06F4A136843F480731360FFF792
:1012B800CFF905466B4B1B6813F4807F06D1FFF707
:1012C800C7F9401B6428F5D90320C6E0A368012BA1
:1012D8000AD00BBB624B1A6F22F001021A671A6F11
:1012E80022F004021A6704E05D4A136F43F0010319
:1012F8001367A36833B3FFF7ABF90546584B1B6F69
:1013080013F0020FACD1FFF7A3F9401B41F2883369
:101318009842F3D90320A0E0052B09D0504B1A6F4F
:1013280022F001021A671A6F22F004021A67E0E736
:101338004B4B1A6F42F004021A671A6F42F001020F
:101348001A67D6E7FFF784F90546454B1B6F13F07C
:10135800020F85D0FFF77CF9401B41F28833984291
:10136800F3D9032079E03E4A136823F080731360B1
:10137800FFF76EF905463A4B1B6813F0007F06D05D
:10138800FFF766F9401B0228F5D9032065E0344BC6
:10139800996A354A0A40A16AE06A41EA00110A439B
:1013A8009A62226B013AC2F30802616B0139490261
:1013B80089B20A43A16B0139090401F4FE010A4309
:1013C800E16B0139090601F0FE410A431A63596BC2
:1013D800264A0A40A06C4FF6F87191FAA1F1B1FAC9
:1013E80081F100FA01F10A435A63DA6A22F00C0229
:1013F800216C0A43DA62DA6A22F00202616C0A435B
:10140800DA62DA6A42F48032DA62DA6A42F4003284
:10141800DA62DA6A42F48022DA62DA6A42F00102B7
:10142800DA621A6842F080721A60FFF711F904460E
:101438000B4B1B6813F0007F06D1FFF709F9001B5F
:101448000228F5D9032008E0002006E0002004E087
:10145800012002E0012000E0002038BD0120FCE767
:1014680000440258004802580CFCFFFF0700FFFF29
:101478006D4B1B6903F03803102B00F0D180182B3B
:101488000FD00BB169487047674B1B6813F0200FEA
:1014980000F0C880644B1B68C3F3C1036448D8409C
:1014A800704770B4604DAC6A04F00304AE6AC6F3CA
:1014B8000516EB6A03F001036D6BC5F3CC0503FB5E
:1014C80005F307EE903AF8EE677A012C60D0F4B194
:1014D800022C00F08980554BB3FBF6F307EE103A67
:1014E800B8EE477A504B1B6BC3F30803DFED516A24
:1014F80067EEA67A06EE903AF8EE666A76EEA77A76
:10150800F7EE006A77EEA67A27EE277A5BE0464B7D
:101518001B6813F0200F1FD0434A1368C3F3C1039D
:101528004348D840B0FBF6F307EE103AB8EE477AD6
:10153800136BC3F30803DFED3F6A67EEA67A06EE86
:10154800903AF8EE666A76EEA77AF7EE006A77EEDA
:10155800A67A27EE277A36E03548B0FBF6F307EE91
:10156800103AB8EE477A304B1B6BC3F30803DFED34
:10157800316A67EEA67A06EE903AF8EE666A76EE7B
:10158800A77AF7EE006A77EEA67A27EE277A1AE0AE
:101598002649B1FBF6F307EE103AB8EE477A224B2C
:1015A8001B6BC3F30803DFED236A67EEA67A06EE2A
:1015B800903AF8EE666A76EEA77AF7EE006A77EE6A
:1015C800A67A27EE277A184B1B6BC3F34623013301
:1015D80007EE903AF8EE676AC7EE267AFCEEE77AED
:1015E80017EE900A70BC7047134AB2FBF6F307EE89
:1015F800103AB8EE477A0C4B1B6BC3F30803DFEDC8
:101608000D6A67EEA67A06EE903AF8EE666A76EE0E
:10161800A77AF7EE006A77EEA67A27EE277AD2E75E
:1016280005487047024870470044025800093D00C9
:101638000090D0030000003940787D01774B1B688B
:1016480003F007038B420CD2744A136823F0070394
:101658000B431360136803F007038B4201D001208A
:10166800704770B5036813F0020F06D06C4A93698F
:1016780023F00F03C468234393610D4604460368AF
:1016880013F0010F72D0664A936923F4706381687E
:101698000B4393614368022B0AD0032B2BD0012BF9
:1016A80030D05F4A126812F0040F06D10120B2E070
:1016B800126812F4003F00F0AF8059490A6922F01D
:1016C800070213430B61FEF7C3FF06466368022B4C
:1016D8001FD0032B2CD0012B39D0514B1B6913F091
:1016E800380F43D0FEF7B4FF801B41F2883398428D
:1016F800F3D903208FE04A4A126812F0007FDCD148
:10170800012088E0464A126812F4807FD5D1012072
:1017180081E0434B1B6903F03803102B26D0FEF7FA
:1017280097FF801B41F288339842F2D9032072E078
:101738003B4B1B6903F03803182B17D0FEF788FFC3
:10174800801B41F288339842F2D9032063E0344B7E
:101758001B6903F03803082B08D0FEF779FF801BBC
:1017680041F288339842F2D9032054E02B4B1B688E
:1017780003F00703AB420CD9284A136823F0070388
:101788002B431360136803F00703AB4201D0012019
:1017980041E0236813F0040F06D0214A936923F02F
:1017A800700321690B439361236813F0080F06D077
:1017B8001B4AD36923F0700361690B43D361236823
:1017C80013F0100F06D0164AD36923F4E063A16919
:1017D8000B43D361236813F0200F06D0104A136A15
:1017E80023F07003E1690B431362FFF741FE0C4BD2
:1017F8009B6903F470634FF4807292FAA2F2B2FA12
:1018080082F2D340074AD35CD840074B18600020C7
:10181800FEF7DEFE002070BD0120FCE7002000522C
:1018280000440258243900080800002008B500F0D8
:10183800A1FF084B9B6903F00F03012292FAA2F261
:10184800B2FA82F2D340044AD35CD840034B186002
:1018580008BD00BF00440258243900080C000020CD
:1018680008B5FFF7E3FF074BDB6903F070031022AD
:1018780092FAA2F2B2FA82F2D340034AD35CD84079
:1018880008BD00BF004402582439000808B5FFF716
:10189800CDFF074BDB6903F4E0634FF4807292FAE3
:1018A800A2F2B2FA82F2D340024AD35CD84008BD11
:1018B8000044025824390008384B9B6A03F003039C
:1018C800032B69D070B50E460446344A136823F0DA
:1018D80080631360FEF7BCFE0546304B1B6813F0AF
:1018E800006F06D0FEF7B4FE401B0228F5D903208E
:1018F80070BD2A4A936A23F47C33216843EA013392
:1019080093626368013BC3F30803A1680139490284
:1019180089B20B43E1680139090401F4FE010B4364
:1019280021690139090601F0FE410B439363D36A2B
:1019380023F0C00361690B43D362D36A23F0200309
:10194800A1690B43D362BEB9D36A43F40023D362BF
:10195800124A136843F080631360FEF779FE044669
:101968000E4B1B6813F0006F14D1FEF771FE001BBD
:101978000228F5D90320BBE7012E05D0074AD36A10
:1019880043F40013D362E3E7044AD36A43F48013B1
:10199800D362DDE70020ABE701207047004402581E
:1019A800384B9B6A03F00303032B69D070B50E46CE
:1019B8000446344A136823F080531360FEF748FE48
:1019C8000546304B1B6813F0005F06D0FEF740FE5B
:1019D800401B0228F5D9032070BD2A4A936A23F0D8
:1019E8007C73216843EA015393626368013BC3F344
:1019F8000803A1680139490289B20B43E16801393A
:101A0800090401F4FE010B4321690139090601F0BB
:101A1800FE410B431364D36A23F4406361690B43AB
:101A2800D362D36A23F40073A1690B43D362BEB9AE
:101A3800D36A43F48003D362124A136843F0805395
:101A48001360FEF705FE04460E4B1B6813F0005F9B
:101A580014D1FEF7FDFD001B0228F5D90320BBE7D2
:101A6800012E05D0074AD36A43F08073D362E3E7B7
:101A7800044AD36A43F40003D362DDE70020ABE7EE
:101A88000120704700440258F8B50446036813F073
:101A9800006F2BD0436EB3F5801F18D007D9B3F56C
:101AA800001F1DD0B3F5401F2ED1002606E05BBBFA
:101AB800A14AD36A43F40033D36200269E4A136DC9
:101AC80023F44013616E0B431365002510E00221D7
:101AD8000430FFF7F1FE0646002EEFD0354607E04A
:101AE80002212430FFF75CFF0646F5E700252E4665
:101AF800236813F4807F28D0636D042B22D8DFE895
:101B080003F006141A0B0B0001252E46F0E78A4A4B
:101B1800D36A43F40033D362AEB9874A136D23F016
:101B28000703616D0B4313650FE00021201DFFF7CC
:101B3800C3FE0646F0E7002104F12400FFF730FF5A
:101B48000646E9E701263543EDB2236813F4007F22
:101B580014D0A36D802B35D008D823B3402B0AD1DD
:101B68000021201DFFF7A8FE064621E0C02B1FD04C
:101B7800B3F5807F1CD001263543EDB2236813F4FA
:101B8800806F2FD0D4F8A430B3F5800F4FD020D871
:101B9800002B3CD0B3F5001F21D10021201DFFF7F9
:101BA8008BFE064638E0644AD36A43F40033D362B6
:101BB800002EE1D1604A136D23F4E073A16D0B434D
:101BC8001365DBE7002104F12400FFF7E9FE064670
:101BD800EEE7B3F5C00F1FD0B3F5000F1CD00126F8
:101BE8003543EDB2236813F4006F30D0D4F8A83031
:101BF800B3F1007F48D021D8002B35D0B3F1807FD6
:101C080022D10021201DFFF757FE064631E04A4A3F
:101C1800D36A43F40033D362002EE1D1464A936D70
:101C280023F46003D4F8A4100B439365DAE700218A
:101C380004F12400FFF7B4FE0646EDE7B3F1407F58
:101C480017D0B3F1806F14D001263543EDB2236865
:101C580013F0007F23D0A36C102B34D01BD9202B7A
:101C680040D0302B34D017E0334AD36A43F40033E2
:101C7800D362002EE9D1304A936D23F0E063D4F8A3
:101C8800A8100B439365E2E7002104F12400FFF755
:101C980087FE0646EDE7DBB101263543EDB2236842
:101CA80013F4805F2DD0E36DB3F5005F55D01FD8D6
:101CB800002B43D0B3F5805F20D10021201DFFF712
:101CC800FBFD06463FE01C4AD36A43F40033D36267
:101CD800002EE2D1184AD36C23F03003A16C0B43D9
:101CE800D364DCE70221201DFFF7E6FD0646EFE797
:101CF800B3F5405F27D0B3F5804F24D00126354394
:101D0800EDB2236813F4005F3AD0236EB3F5003FB9
:101D180053D029D83BB1B3F5803F2ED10121201DE6
:101D2800FFF7CAFD06464EBB034A136D23F4E023B2
:101D3800216E0B43136523E000440258944AD36A8A
:101D480043F40033D362002ED9D1914A136D23F4A2
:101D5800E043E16D0B431365D3E7002104F1240050
:101D6800FFF71EFE0646EEE7B3F5802FDBD0B3F58E
:101D7800A02FD8D0B3F5403FD5D001263543EDB2DA
:101D8800236813F4804F2BD0D4F8AC30B3F1005F44
:101D980040D019D83BB1B3F1805F1ED10121201D7D
:101DA800FFF78AFD0646CEB9794A936D23F0E043E2
:101DB800D4F8AC100B43936512E0012104F1240020
:101DC800FFF7EEFD0646AEE7B3F1804FEBD0B3F177
:101DD800A04FE8D0B3F1405FE5D001263543EDB21E
:101DE800236813F4004F0AD0E36EB3F1805F18D074
:101DF800B3F1005F24D0CBB101263543EDB223689F
:101E080013F0807F39D0636C032B33D8DFE803F0FD
:101E1800231E2C23012104F12400FFF7C1FD0646EF
:101E2800C1E75B4AD36A43F40033D362002EE4D19E
:101E3800574A136D23F04053E16E0B431365DEE7F9
:101E48000121201DFFF738FD0646EFE7504AD36A07
:101E580043F40033D36276B94D4AD36C23F00303BD
:101E6800616C0B43D36408E00221201DFFF724FDB9
:101E78000646F0E701263543EDB2236813F4800FD8
:101E88001FD1236813F0010F00F0A080A36F282B47
:101E980000F29980DFE803F08797979797979797CD
:101EA80082979797979797979097979797979797D6
:101EB80087979797979797978797979797979797CA
:101EC8008700344A136843F480731360FEF7C0FB3D
:101ED8000746304B1B6813F4807F05D1FEF7B8FB2B
:101EE800C01B6428F5D90326002E4DD1284B1B6F43
:101EF800D4F8B020534013F4407F0CD0244B1A6F11
:101F080022F44072196F41F480311967196F21F476
:101F1800803119671A67D4F8B030B3F5807F15D0CF
:101F28007EBBD4F8B03003F44072B2F5407F1ED0C7
:101F3800174A136923F47C53136115490B6FD4F8BE
:101F4800B020C2F30B0213430B679AE7FEF780FB3E
:101F580007460F4B1B6F13F0020FE1D1FEF778FB1A
:101F6800C01B41F288339842F3D90326D8E70848C2
:101F7800026922F47C52084901EA131313430361EE
:101F8800DBE73543EDB27CE73543EDB279E700BFD7
:101F98000044025800480258CFFFFF000121201DCD
:101FA800FFF78AFC06467EB9AC4A536D23F0380326
:101FB800A16F0B43536509E0012104F12400FFF7E9
:101FC800EFFC0646EFE701263543EDB2236813F030
:101FD800020F1FD0636F052B19D8DFE803F0080341
:101FE800110808080121201DFFF766FC06467EB986
:101FF8009A4A536D23F00703616F0B43536509E059
:10200800012104F12400FFF7CBFC0646EFE7012687
:102018003543EDB2236813F0040F21D0D4F8903083
:10202800052B1AD8DFE803F0080312080808012175
:10203800201DFFF741FC064686B9884A936D23F0B8
:102048000703D4F890100B43936509E0012104F1CC
:102058002400FFF7A5FC0646EEE701263543EDB25E
:10206800236813F0200F24D0D4F88C30B3F1005F2C
:102078003CD012D83BB1B3F1805F17D10021201DAD
:10208800FFF71AFC064696B9744A536D23F0E043ED
:10209800D4F88C100B4353650BE0B3F1804FF2D0AA
:1020A800B3F1A04FEFD0B3F1405FECD00126354338
:1020B800EDB2236813F0400F2BD0D4F89830B3F565
:1020C800006F44D019D83BB1B3F5806F1ED1002101
:1020D800201DFFF7F1FB0646CEB9604A936D23F445
:1020E800E053D4F898100B43936512E0022104F1F1
:1020F8002400FFF755FC0646C5E7B3F5805FEBD033
:10210800B3F5A05FE8D0B3F5406FE5D001263543BD
:10211800EDB2236813F0800F2CD0D4F89C30B3F5BF
:10212800804F00F08B8019D83BB1B3F5005F1ED10A
:102138000021201DFFF7C0FB0646CEB9474A936D24
:1021480023F46043D4F89C100B43936512E00221FA
:1021580004F12400FFF724FC0646BDE7B3F5004F61
:10216800EBD0B3F5204FE8D0B3F5C04FE5D001264A
:102178003543EDB2236813F0080F0AD0D4F8803045
:10218800B3F5805F61D035494A6D22F4405213435C
:102198004B65236813F0100F0AD0D4F89430B3F5C8
:1021A800807F5DD02D498A6D22F4407213438B6580
:1021B800236813F4002F0CD0D4F8A030B3F5803F77
:1021C80066D0B3F5003F58D0002B51D001263543D7
:1021D800EDB2236813F4802F0DD0D4F88430B3F512
:1021E800001F6CD0B3F5401F5ED0B3F5801F56D0EA
:1021F80001263543EDB2236813F4803F08D0E36C21
:10220800002B63D0B3F5803F6FD001263543EDB284
:10221800236813F0005F6ED1236813F4003F77D072
:10222800E36FB3F5807F00F0AA806CD9B3F5007F27
:1022380000F0AA80B3F5407F67D1A5E0022104F140
:102248002400FFF7ADFB064677E7022104F12400DE
:10225800FFF7A6FB0543EDB29BE700BF0044025819
:10226800022104F12400FFF79BFB0543EDB29FE731
:102278000021201DFFF720FB0646002EA7D14B4A60
:10228800936D23F44033D4F8A0100B439365A0E773
:10229800022104F12400FFF783FB0646EDE7434AD9
:1022A800D36A43F40033D362002EA2D13F4A536D60
:1022B80023F44013D4F884100B4353659BE70121A2
:1022C80004F12400FFF76CFB0646EDE7374AD36AB2
:1022D80043F40033D362002E98D1344AD36C23F4EC
:1022E8008033E16C0B43D36492E70221201DFFF792
:1022F800E3FA0646EFE7022104F12400FFF750FB5A
:102308000543EDB288E7002B3ED001263543EDB2F8
:10231800236813F4801F06D0244A136D23F000436A
:10232800216F0B431365236813F0805F07D01F4AA2
:10233800136923F48043D4F8B4100B431361236862
:1023480013F4001F06D0194A136D23F08073A16E91
:102358000B431365236813F0804F09D0134B1A6998
:1023680022F400421A611A69D4F8B8100A431A61B3
:102378002368002B12DB05B101252846F8BD0B4A5E
:10238800D36A43F40033D362002EBFD1074A536D9A
:1023980023F44073E16F0B435365B9E7034AD36CE9
:1023A80023F04053216D0B43D364E4E70044025803
:1023B80008B5FFF73BFA074B1B6A03F070031022BE
:1023C80092FAA2F2B2FA82F2D340034AD35CD8401E
:1023D80008BD00BF0044025824390008F0B46D4C11
:1023E800A76A07F00307A16AC1F3053CE66A06F08D
:1023F8001006E36BC3F3CC0306FB03F607EE906A03
:10240800B8EE677A012F60D0F7B1022F00F0A580EF
:10241800614BB3FBFCF307EE903AF8EE677A5D4B3D
:102428009B6BC3F30803DFED5D6A27EE267A06EEA1
:10243800903AF8EE666A36EE877AF7EE006A37EE7B
:10244800267A67EE877A5BE0524B1B6813F0200F01
:102458001FD0504A1368C3F3C103514DDD40B5FB8B
:10246800FCF307EE903AF8EE677A936BC3F3080330
:10247800DFED4A6A27EE267A06EE903AF8EE666AAB
:1024880036EE877AF7EE006A37EE267A67EE877AB5
:1024980036E0434CB4FBFCF307EE903AF8EE677A6B
:1024A8003C4B9B6BC3F30803DFED3C6A27EE267AAF
:1024B80006EE903AF8EE666A36EE877AF7EE006A2C
:1024C80037EE267A67EE877A1AE03349B1FBFCF3D8
:1024D80007EE903AF8EE677A2E4B9B6BC3F308032E
:1024E800DFED2E6A27EE267A06EE903AF8EE666A57
:1024F80036EE877AF7EE006A37EE267A67EE877A45
:10250800244A936BC3F34623013307EE103AB8EE1F
:10251800477AC7EE876AFCEEE66AC0ED006A936BFD
:10252800C3F30643013307EE103AB8EE477AC7EE15
:10253800876AFCEEE66AC0ED016A936BC3F3066333
:10254800013307EE103AB8EE477AC7EE876AFCEE19
:10255800E66AC0ED026AF0BC7047124AB2FBFCF3AF
:1025680007EE903AF8EE677A0A4B9B6BC3F30803C1
:10257800DFED0A6A27EE267A06EE903AF8EE666AEA
:1025880036EE877AF7EE006A37EE267A67EE877AB4
:10259800B6E700BF0044025800093D0000000039BA
:1025A8000090D00340787D01F0B46D4CA76A07F025
:1025B8000307A16AC1F3055CE66A06F48076636CDA
:1025C800C3F3CC0306FB03F607EE906AB8EE677A0E
:1025D800012F60D0F7B1022F00F0A580614BB3FB4B
:1025E800FCF307EE903AF8EE677A5D4B1B6CC3F389
:1025F8000803DFED5D6A27EE267A06EE903AF8EEDC
:10260800666A36EE877AF7EE006A37EE267A67EE64
:10261800877A5BE0524B1B6813F0200F1FD0504A9B
:102628001368C3F3C103514DDD40B5FBFCF307EE5E
:10263800903AF8EE677A136CC3F30803DFED4A6A41
:1026480027EE267A06EE903AF8EE666A36EE877A34
:10265800F7EE006A37EE267A67EE877A36E0434C63
:10266800B4FBFCF307EE903AF8EE677A3C4B1B6C30
:10267800C3F30803DFED3C6A27EE267A06EE903AAC
:10268800F8EE666A36EE877AF7EE006A37EE267A53
:1026980067EE877A1AE03349B1FBFCF307EE903A0C
:1026A800F8EE677A2E4B1B6CC3F30803DFED2E6A36
:1026B80027EE267A06EE903AF8EE666A36EE877AC4
:1026C800F7EE006A37EE267A67EE877A244A136CAB
:1026D800C3F34623013307EE103AB8EE477AC7EE44
:1026E800876AFCEEE66AC0ED006A136CC3F3064322
:1026F800013307EE103AB8EE477AC7EE876AFCEE68
:10270800E66AC0ED016A136CC3F30663013307EE92
:10271800103AB8EE477AC7EE876AFCEEE66AC0ED73
:10272800026AF0BC7047124AB2FBFCF307EE903A1B
:10273800F8EE677A0A4B1B6CC3F30803DFED0A6AED
:1027480027EE267A06EE903AF8EE666A36EE877A33
:10275800F7EE006A37EE267A67EE877AB6E700BFAB
:102768000044025800093D00000000390090D003E1
:1027780040787D0108B5FEF77BFE084B9B6903F4A2
:1027880070634FF4807292FAA2F2B2FA82F2D340E6
:10279800034AD35CD840034B186008BD0044025874
:1027A80024390008080000202DE9F04387B00446CA
:1027B8000168826A83680069034360690343E069CA
:1027C800034313430868874A02401A430A60226891
:1027D800536823F44053E1680B435360A2692168AE
:1027E800814B994201D0236A1A43A36AB3F1005F6F
:1027F8002FD088687D4B034013438B602268D36ACF
:1028080023F00F03616A0B43D3622368784A93422B
:1028180024D0784A93425ED0774A934275D0774A5B
:10282800934200F08C80764A934200F0A280754A69
:10283800934200F0B880744A934200F0F580734ADE
:10284800934200F00881684A934200F01B8180257A
:1028580031E1E36A206B03431A43CAE76C4A526DBD
:1028680002F03802282A2AD8DFE812F024012900C9
:102878002900290029002900290029002B00290006
:102888002900290029002900290029002D002900F4
:102898002900290029002900290029002F002900E2
:1028A80029002900290029002900290031002900D0
:1028B8002900290029002900290029003300802542
:1028C800F9E00425F7E04025F5E00825F3E01025B8
:1028D800F1E02025EFE04E4A526D02F00702052A8A
:1028E80007D8DFE812F0360108000A000C000E00D5
:1028F80010008025DFE00425DDE04025DBE0082529
:10290800D9E01025D7E02025D5E0414A526D02F0E4
:102918000702052A07D8DFE812F01E0108000A009E
:102928000C000E0010008025C5E00425C3E04025FA
:10293800C1E00825BFE01025BDE02025BBE0344AF2
:10294800526D02F00702052A07D8DFE812F00601E7
:1029580008000A000C000E0010008025ABE00425DA
:10296800A9E04025A7E00825A5E01025A3E020253B
:10297800A1E0274A526D02F00702052A07D8DFE8CE
:1029880012F0EE0008000A000C000E00100080256E
:1029980091E004258FE040258DE008258BE0102587
:1029A80089E0202587E01A4A526D02F03802282A69
:1029B80016D8DFE802F0D6151515151515152F15BB
:1029C8001515151515153115151515151515331575
:1029D8001515151515153515151515151515370072
:1029E800802568E0F369FFCF000C0058FFF4FF1161
:1029F800001001400044004000480040004C0040E6
:102A0800005000400014014000780040007C004065
:102A18000044025804254EE040254CE008254AE0D1
:102A2800102548E0202546E09B4A526D02F0070237
:102A3800052A04D8DFE802F0970507090B0D802561
:102A480039E0042537E0402535E0082533E0102536
:102A580031E020252FE0904A526D02F00702052A46
:102A680004D8DFE802F0820507090B0D802522E073
:102A7800042520E040251EE008251CE010251AE06A
:102A8800202518E002F50E32926D02F00702052AA1
:102A980004D8DFE802F06C0507090B0D80250AE071
:102AA800042508E0402506E0082504E0102502E09A
:102AB800202500E00125794A93425AD0E269B2F50F
:102AC800004F00F09181402D00F2FB82DFE815F005
:102AD8005A026C02F902F9027E02F902F902F902BD
:102AE800A602F902F902F902F902F902F902F90259
:102AF800D002F902F902F902F902F902F902F9021F
:102B0800F902F902F902F902F902F902F902F902E5
:102B1800E002F902F902F902F902F902F902F902EE
:102B2800F902F902F902F902F902F902F902F902C5
:102B3800F902F902F902F902F902F902F902F902B5
:102B4800F902F902F902F902F902F902F902F902A5
:102B580092020025AFE70025ADE70025ABE7002589
:102B6800A9E70125A7E70025A5E70025A3E7022592
:102B7800A1E7082D36D007D9202D3FD0402D2CD0E5
:102B8800102D0AD001206CE1022D08D0042DF9D1B6
:102B980003A8FFF723FC049B04E0414B05E0FFF783
:102BA80007FC0346002B00F08482666806EB4602A9
:102BB8009A4200F28082B3EB063F00F27E82082D33
:102BC80000F095801FD9202D00F0F580402D6FD0A2
:102BD800102D00F0D280012054E06846FFF7E4FC95
:102BE800019BDFE72C4B1B6813F0200F09D02A4B01
:102BF8001868C0F3C1002B4BC340D3E74FF4004320
:102C0800D3E7284BD1E7022D20D0042DE3D103A828
:102C1800FFF7E4FB0025626A234B33F812200023F8
:102C280004982946FDF754FB0F0247EA106706028D
:102C3800626850082B4616EB000847F10009404629
:102C48004946FDF745FB034628461BE0FFF7B0FB66
:102C58000025626A144B33F8122000232946FDF739
:102C680037FB0F0247EA10670602626850082B46D6
:102C780016EB000847F1000940464946FDF728FBD6
:102C880003462846A3F54071084A914200F217828C
:102C98002268D360E5E000BF00440258000C0058E9
:102CA80000093D000090D0030C390008FFFC0F001C
:102CB8006846FFF779FC0025626AA44B33F81220B6
:102CC800002301982946FDF703FB0F0247EA106726
:102CD8000602626850082B4616EB000847F1000907
:102CE80040464946FDF7F4FA03462846CAE7984B9A
:102CF8001B6813F0200F22D0954B1968C1F3C1014E
:102D08000025626A914B33F8122000239148C8408D
:102D18002946FDF7DDFA4FEA012949EA10694FEA29
:102D28000028700832462B4618EB000649F10007C8
:102D380030463946FDF7CCFA03462846A2E7626AD0
:102D4800824B33F81220002382480021FDF7C0FA95
:102D58004FEA012949EA10694FEA0028700800255E
:102D680032462B4618EB000649F100073046394633
:102D7800FDF7AEFA0346284684E7626A734B33F8D8
:102D88001220002374480021FDF7A2FA4FEA012916
:102D980049EA10694FEA00287008002532462B4698
:102DA80018EB000649F1000730463946FDF790FA5E
:102DB8000346284666E7626A644B33F812204FF4EC
:102DC8000043B3FBF2F34FF000094FEA03287708FA
:102DD800002532462B4618EB070049F10001FDF7A4
:102DE80077FA034628464DE7402D00F2C880DFE811
:102DF80005F0213BC6C64CC6C6C672C6C6C6C6C600
:102E0800C6C69CC6C6C6C6C6C6C6C6C6C6C6C6C684
:102E1800C6C6B5C6C6C6C6C6C6C6C6C6C6C6C6C65B
:102E2800C6C6C6C6C6C6C6C6C6C6C6C6C6C6C6C63A
:102E3800C6C65F00FEF714FD626A444B33F81220E1
:102E4800B0FBF2F063685A0802EB4002B2FBF3F2FF
:102E580092B2002022F00F03C2F342021A43236801
:102E6800DA6007B0BDE8F083FEF710FD626A374B01
:102E780033F81220B0FBF2F063685A0802EB400204
:102E8800B2FBF3F292B20020E4E703A8FFF7A6FA38
:102E9800626A2E4B33F81230049AB2FBF3F361687E
:102EA8004A0802EB4302B2FBF1F292B20020D1E7EA
:102EB8006846FFF779FB626A244B33F81230019AAF
:102EC800B2FBF3F361684A0802EB4302B2FBF1F28A
:102ED80092B20020BEE71E4B1B6813F0200F14D0DF
:102EE8001B4B1A68C2F3C1021A4BD340616A174AD6
:102EF80032F81120B3FBF2F361684A0802EB43028F
:102F0800B2FBF1F292B20020A4E7626A0F4B33F8E9
:102F18001220104BB3FBF2F361684A0802EB43023C
:102F2800B2FBF1F292B2002094E7626A074B33F8E1
:102F38001230094AB2FBF3F361684A0802EB430214
:102F4800B2FBF1F292B2002084E700BF0C3900080E
:102F5800004402580090D00300093D00626A5A4BB1
:102F680033F812304FF40042B2FBF3F361684A08B9
:102F780002EB4302B2FBF1F292B200206AE70120B1
:102F8800002267E7FEF76CFC626A4F4B33F8123099
:102F9800B0FBF3F3626803EB5203B3FBF2F322686E
:102FA8009BB2D36000205CE7FEF770FC626A464B78
:102FB80033F81230B0FBF3F3626803EB5203B3FB50
:102FC800F2F322689BB2D36000204AE703A8FFF718
:102FD80005FA626A3C4B33F81220049BB3FBF2F308
:102FE800626803EB5203B3FBF2F322689BB2D3602F
:102FF800002036E76846FFF7D7FA626A324B33F8A3
:103008001220019BB3FBF2F3626803EB5203B3FB9C
:10301800F2F322689BB2D360002022E72B4A1268A1
:1030280012F0200F14D0294A1168C1F3C101284AAF
:10303800CA40606A244931F81010B2FBF1F26168A5
:1030480002EB5102B2FBF1F292B2DA60002008E71B
:10305800616A1D4A32F811101D4AB2FBF1F261682B
:1030680002EB5102B2FBF1F292B2DA600020F8E60C
:10307800616A154A32F81110164AB2FBF1F261681A
:1030880002EB5102B2FBF1F292B2DA600020E8E6FC
:10309800616A0D4A32F811104FF40042B2FBF1F2A6
:1030A800616802EB5102B2FBF1F292B2DA600020E1
:1030B800D7E60020D5E60120D3E60120D1E601209D
:1030C800CFE60120CDE600BF0C39000800440258C5
:1030D8000090D00300093D00436B13F0010F06D0A8
:1030E8000268536823F40033816B0B435360436BCE
:1030F80013F0020F06D00268536823F48033C16BC3
:103108000B435360436B13F0040F06D002685368F7
:1031180023F48023016C0B435360436B13F0080FB7
:1031280006D00268536823F40043416C0B43536094
:10313800436B13F0100F06D00268936823F4805392
:10314800816C0B439360436B13F0200F06D0026829
:10315800936823F40053C16C0B439360436B13F0E3
:10316800400F0AD00268536823F48013016D0B43A3
:103178005360036DB3F5801F0BD0436B13F0800FC2
:1031880006D00268536823F40023816D0B43536013
:1031980070470268536823F4C003416D0B435360C2
:1031A800EBE72DE9F04105460F4616469846069C82
:1031B8002B68DB6937EA03030CBF01230023B34202
:1031C8001DD1B4F1FF3FF3D02CB1FDF741FAA0EBCC
:1031D8000800A042ECD92A68136823F4D07313605E
:1031E8002A68936823F001039360202385F87930D7
:1031F80085F87A30002385F87830032000E0002035
:10320800BDE8F0812DE9F04182B01E4690F8793092
:10321800DBB2202B52D104460D469046B2FA82F317
:103228005B09002908BF0123002B4CD190F87830A6
:10323800012B4AD0012380F878300023C36721236B
:1032480080F87930FDF704FA0746A4F86080A4F8FE
:10325800628003E023682A781A850135B4F8623061
:103268009BB2DBB1B4F86230013B9BB2A4F8623088
:1032780000963B46002280212046FFF792FF30BB94
:10328800A368B3F5805FE5D12369002BE2D12268FA
:1032980035F8023BC3F308031385DFE700963B4686
:1032A800002240212046FFF77CFF034688B92022F0
:1032B80084F87920002284F8782000E00223184658
:1032C80002B0BDE8F0810123F9E70223F7E7032301
:1032D800F5E70323F3E730B583B004460023C3675B
:1032E800FDF7B6F9054623681B6813F0080F0ED1E1
:1032F80023681B6813F0040F17D1202384F8793052
:1033080084F87A30002084F8780003B030BD6FF07C
:103318007E430093034600224FF400112046FFF736
:1033280040FF0028E4D00320EFE76FF07E430093CE
:103338002B4600224FF480012046FFF732FF002879
:10334800DBD00320E1E778B310B5044690F8793074
:103358000BB3242384F879302268136823F001031F
:1033680013602046FFF720FA012813D0636BBBB91E
:103378002268536823F4904353602268936823F0CB
:103388002A0393602268136843F001031360204600
:10339800FFF7A1FF10BD80F8783000F0D9F9D8E721
:1033A8002046FFF799FEE3E70120704710B588B083
:1033B800154BD3F8E02042F00202C3F8E020D3F81E
:1033C800E02002F002020192019AD3F8E02042F0D4
:1033D8000102C3F8E020D3F8E03003F001030293C0
:1033E800029B0A4C002281212046FDF777FD8123AC
:1033F80003930123049300230593069303A920460E
:10340800FDF776FC08B010BD0044025800040258CD
:10341800FEE7000008B51D481D4B036000238360CC
:10342800C360037443740122426182610221C16155
:10343800016242628262C262026343638363C3635E
:103448000364042242648364C2640365426583653D
:10345800C365036643668266C3660367436783671B
:10346800C367C0F88030C0F88430C0F88830C0F82E
:103478008C30C0F89030C0F89830FDF7B7FA00B932
:1034880008BD4FF494710348FFF7C2FFB000002055
:1034980000A000403439000808B50E480E4B036000
:1034A8004FF4E133436000238360C36003610C225F
:1034B80042618361C361036243628362C3620363DF
:1034C8004363FFF740FF00B908BD40F241110348CC
:1034D800FFF79EFF30000020004800403439000804
:1034E80000B5CDB0344BDA6822F00402DA6000226D
:1034F80001929A6922F4404242F480429A619B699F
:1035080003F440430193019B2B4B9B6913F4005F29
:10351800FAD00223399301223C9210223D92429321
:10352800002243922021449181214591469347935B
:103538004893042349934A924B9239A8FDF7D4FC47
:1035480068BB3F23319300213291339134913591F7
:1035580036913791389131A8FEF770F818BB48F2C8
:10356800020302934FF080531D9300231F9302A878
:10357800FEF78AFAD8B9114B1868114BA3FB003033
:103588008009FDF7C3F80420FDF7D6F8002211469C
:103598004FF0FF30FDF788F84DB05DF804FBD321FC
:1035A8000848FFF735FFE5210648FFF731FFED2111
:1035B8000448FFF72DFF00BF00480258080000200C
:1035C800D34D62103439000810B58CB0FDF724F8DB
:1035D800FFF786FFFFF7EAFEFFF71CFFFFF75CFF28
:1035E8002148FDF731FB40F2FF7303930023049356
:1035F80005934FF4002206920793089309930A93C0
:103608000B930CA9242301F8253D642301221748B4
:10361800FFF7F8FD9DF80B3023B9012280211448EB
:10362800FDF75CFC00230093019309238DF800301B
:103638006A4603A90C48FDF721FB0028F8D00C4C7A
:10364800012211462046FDF749FC4FF47A70FDF738
:1036580005F8002201212046FDF740FC4FF47A705E
:10366800FCF7FCFFE4E700BFB000002030000020BA
:103678000004025800B583B01E4BD3F8F42042F082
:103688000202C3F8F420D3F8F43003F002030193E4
:10369800019B0320FCF7F6FF002211466FF00B0098
:1036A800FDF702F8002211466FF00A00FCF7FCFF54
:1036B800002211466FF00900FCF7F6FF00221146C0
:1036C8006FF00400FCF7F0FF002211466FF00300D2
:1036D800FCF7EAFF002211466FF00100FCF7E4FF57
:1036E800002211464FF0FF30FCF7DEFF03B05DF813
:1036F80004FB00BF004402580268124B9A4200D0F3
:10370800704700B587B0104BD3F8EC2042F48072B4
:10371800C3F8EC20D3F8EC3003F480730093009BDB
:103728004FF4C0530193022302930023039304939D
:103738000923059301A90548FDF7DAFA07B05DF8F2
:1037480004FB00BF00A000400044025800000258DB
:103758000268124B9A4200D0704700B587B0104BF0
:10376800D3F8E82042F48022C3F8E820D3F8E83000
:1037780003F480230093009B4FF4406301930223DA
:1037880002930023039304930723059301A9054893
:10379800FDF7AEFA07B05DF804FB00BF0048004033
:1037A80000440258000402587047FEE7FEE7FEE7AF
:1037B800FEE770477047704708B5FCF73DFFFCF718
:1037C800CCFF08BD10B41549D1F8883043F4700314
:1037D800C1F88830124B1A6842F001021A600022C0
:1037E8001A611C680F48204018609A61DA611A62F1
:1037F8009A62DA621A635A639A63DA631A645A64D9
:10380800186820F4802018601A66074B01221A6095
:103818004FF000638B605DF8044B704700ED00E0EB
:10382800004402587FEDF6EA08810051DFF834D0F1
:10383800002103E00C4B5B58435004310B480C4B00
:1038480042189A42F6D30B4A02E0002342F8043B9E
:10385800094B9A42F9D3FFF7B5FF00F011F8FFF7CB
:10386800B3FE704700000220543900080000002011
:1038780010000020100000204C010020FEE700008E
:1038880070B50D4E0D4CA41BA4100025A54209D1FE
:103898000B4E0C4C00F018F8A41BA4100025A542F0
:1038A80005D170BD56F8253098470135EEE756F832
:1038B800253098470135F2E74C3900084C390008A3
:1038C8004C39000850390008F8B500BFF8BC08BCEE
:1038D8009E467047F8B500BFF8BC08BC9E467047C6
:1038E8000001020304050607080C101418203040D4
:1038F80000000000000102030400050000000600AB
:1039080000000700010002000400060008000A0089
:103918000C001000200040008000000100000000A2
:103928000102030401020304060708092E2E2F537F
:0C39380072632F6D61696E2E6300000049
:08394400C4C9FF7F010000006F
:04394C00BD020008B0
:0439500099020008D0
:1039540001000000100000000090D0030090D0038C
:040000050800383582
:00000001FF
