:020000040800F2
:1000000000800120951F00082D1F00082F1F0008E9
:10001000311F0008331F0008351F000800000000D2
:10002000000000000000000000000000371F000872
:10003000391F0008000000003B1F00083D1F00089A
:10004000E51F0008E51F0008E51F0008E51F000880
:10005000E51F0008E51F0008E51F0008E51F000870
:10006000E51F0008E51F0008E51F0008E51F000860
:10007000E51F0008E51F0008E51F0008E51F000850
:10008000E51F0008E51F0008E51F0008000000004C
:10009000000000000000000000000000E51F000854
:1000A000E51F0008E51F0008E51F0008E51F000820
:1000B000E51F0008E51F0008E51F0008E51F000810
:1000C000E51F0008E51F0008E51F0008E51F000800
:1000D000E51F0008E51F0008E51F000800000000FC
:1000E000E51F0008E51F0008E51F000800000000EC
:1000F000000000000000000000000000E51F0008F4
:1001000000000000E51F0008E51F0008E51F0008CB
:1001100000000000000000000000000000000000DF
:10012000E51F0008E51F0008E51F0008E51F00089F
:10013000E51F0008000000000000000000000000B3
:10014000000000000000000000000000E51F0008A3
:10015000E51F0008E51F0008E51F0008E51F00086F
:10016000E51F0008E51F0008000000000000000077
:10017000000000000000000000000000000000007F
:1001800000000000E51F0008000000000000000063
:04019000E51F00085F
:1001940010B5054C237833B9044B13B10448AFF3BD
:1001A40000800123237010BD0C000020000000001B
:1001B4003020000808B5034B1BB103490348AFF3D3
:1001C400008008BD0000000010000020302000085E
:1001D40053B94AB9002908BF00281CBF4FF0FF31AA
:1001E4004FF0FF3000F072B9ADF1080C6DE904CEA8
:1001F40000F006F8DDF804E0DDE9022304B07047FE
:100204002DE9F047089E04468846002B4BD18A42CC
:10021400154667D9B2FA82F24AB1C2F1200701FA4F
:1002240002F320FA07F7954047EA030894404FEA9F
:10023400154E230CB8FBFEF71FFA85FC0EFB17883E
:1002440043EA084307FB0CF1994209D9EB1807F17B
:10025400FF3080F01B81994240F21881023F2B4409
:100264005B1AA4B2B3FBFEF00EFB103344EA034462
:1002740000FB0CFCA44509D92C1900F1FF3380F0D4
:100284000781A44540F2048102382C4440EA074027
:10029400A4EB0C0400271EB1D4400023C6E900439C
:1002A4003946BDE8F0878B4209D9002E00F0EB8077
:1002B4000027C6E9000138463946BDE8F087B3FA9D
:1002C40083F7002F47D18B4202D3824200F2FA8097
:1002D400841A61EB030301209846002EE0D0C6E99E
:1002E4000048DDE702B9FFDEB2FA82F2002A40F0EC
:1002F4008F80491B4FEA154E1FFA85F80127B1FB81
:10030400FEFC230C0EFB1C1143EA014308FB0CF119
:10031400994207D9EB180CF1FF3002D2994200F24E
:10032400CD808446591AA3B2B1FBFEF00EFB101423
:1003340043EA044408FB00F8A04507D92C1900F14E
:10034400FF3302D2A04500F2B6801846A4EB08049D
:1003540040EA0C409FE7C7F1200CBB4022FA0CFE98
:100364004EEA030E01FA07F420FA0CF521FA0CF315
:100374004FEA1E482543B3FBF8F92C0C08FB19334C
:100384001FFA8EFA44EA034309FB0AF49C4202FA78
:1003940007F200FA07F10BD91EEB030309F1FF3052
:1003A40080F087809C4240F28480A9F10209734462
:1003B4001B1BADB2B3FBF8F008FB103345EA034452
:1003C40000FB0AFAA24508D91EEB040400F1FF332E
:1003D4006BD2A24569D90238744440EA0940A0FBB3
:1003E4000289A4EB0A044C45C2464B4654D351D06F
:1003F400002E69D0B1EB0A0564EB030404FA0CFC8B
:10040400FD40FC404CEA0505C6E90054002747E7D7
:10041400C2F1200320FA03F7954001FA02F021FA11
:1004240003F34FEA154E3843010CB3FBFEF71FFAF2
:1004340085F80EFB173341EA034107FB08F38B42AF
:1004440004FA02F407D9691807F1FF3C2FD28B4252
:100454002DD9023F2944CB1A81B2B3FBFEF00EFB27
:10046400103341EA034100FB08F38B4207D96918B2
:1004740000F1FF3C17D28B4215D902382944C91A1E
:1004840040EA07473BE73746304609E70746E7E6D1
:100494001846FBE64145ABD2B8EB020A69EB0E0203
:1004A40001381346A4E76046E9E7184695E767462E
:1004B400D1E781467CE702382C4447E7ACF1020CD3
:1004C4002B442FE7384608E73746E9E6704700BF74
:1004D40010B504460E4B18784FF47A73B3FBF0F35F
:1004E4000C4A1068B0FBF3F000F09CF868B90F2CCC
:1004F40001D901200AE0002221464FF0FF3000F02C
:100504005DF8034B5C60002000E0012010BD00BFDB
:10051400000000200800002008B50B4B1A6842F4C4
:1005240000721A601A6842F480621A601A6842F40F
:1005340080721A60032000F02FF80020FFF7C8FF34
:1005440001F04AFC002008BD003C0240034A116847
:10055400034B1B780B441360704700BF2800002036
:1005640000000020014B1868704700BF28000020DD
:1005740038B50446FFF7F6FF0546B4F1FF3F02D055
:10058400044B1B781C44FFF7EDFF401BA042FAD339
:1005940038BD00BF00000020074AD36823F4E0639D
:1005A4001B041B0C000200F4E060184340F0BF6021
:1005B40040F40030D060704700ED00E030B4174BD9
:1005C400DB68C3F30223C3F10704042C28BF04240B
:1005D4001D1D062D18D9033B4FF0FF3505FA04F411
:1005E40021EA0401994005FA03F322EA03031943BB
:1005F40000280BDB0901C9B200F1604000F561403D
:1006040080F8001330BC70470023E5E700F00F00CA
:100614000901C9B2024B1954F4E700BF00ED00E030
:1006240014ED00E00138B0F1807F0AD2064B586027
:10063400064AF02182F823100020986007221A60ED
:1006440070470120704700BF10E000E000ED00E0BB
:10065400042805D0054A136823F004031360704787
:10066400024A136843F004031360704710E000E08B
:10067400704708B5FFF7FCFF08BD000000230F2BEF
:1006840000F2C580F0B482B039E0042200E0002218
:10069400B2403A4302345E4E46F824205D4A146860
:1006A400EA4302EA04064F6817F4803F01D045EAA2
:1006B4000406584C2660646802EA04064F6817F47E
:1006C400003F01D045EA0406524C6660A46802EA81
:1006D40004064F6817F4801F01D045EA04064D4C08
:1006E400A660E46822404E6816F4001F01D045EA73
:1006F4000402484CE26001330F2B00F28580012292
:100704009A400C6804EA0205AA42F4D14C68022C0F
:1007140001D0122C10D1DE08083650F826C003F0A0
:100724000704A7000F24BC402CEA040C0C69BC404D
:1007340044EA0C0440F8264004685F000326BE40E7
:10074400F64306EA040C4C6804F00304BC4044EA93
:100754000C0404604C6804F1FF3CBCF1010F03D9A4
:10076400112C01D0122C10D1846806EA040CCC6838
:10077400BC4044EA0C048460446824EA02024C68E5
:10078400C4F300149C4014434460C26816408A6851
:10079400BA403243C2604A6812F0805FABD0002294
:1007A40001921D4A546C44F480445464526C02F423
:1007B40080420192019A9C08A61C154A52F82670A0
:1007C40003F0030296000F22B24027EA0207134AFD
:1007D40090423FF45CAF02F5806290420ED002F585
:1007E400806290420CD002F5806290420AD002F5F9
:1007F400806290423FF449AF072249E7012247E76C
:10080400022245E7032243E702B0F0BC7047704779
:1008140000380140003C0140003802400000024022
:100824000369194201D1002070470120704712B9B1
:10083400090481617047816170470000002800F05D
:10084400BB8170B582B00446036813F0010F3BD03E
:10085400A74B9B6803F00C03042B2CD0A44B9B6880
:1008640003F00C03082B21D06368B3F5803F4FD00D
:10087400B3F5A02F52D09E4B1A6822F480321A602E
:100884001A6822F480221A606368002B50D0FFF7A4
:1008940069FE0546964B1B6813F4003F14D1FFF71D
:1008A40061FE401B6428F5D903208AE1904B5B6804
:1008B40013F4800FD8D08E4B1B6813F4003F03D081
:1008C4006368002B00F07A81236813F0020F55D07F
:1008D400874B9B6813F00C0F3ED0854B9B6803F04D
:1008E4000C03082B33D0E368002B68D0814B012222
:1008F4001A60FFF737FE05467D4B1B6813F0020FA5
:1009040054D1FFF72FFE401B0228F5D9032058E1EC
:10091400774A136843F480331360B5E7744B1A685D
:1009240042F480221A601A6842F480321A60ABE7FB
:10093400FFF718FE05466E4B1B6813F4003FC3D047
:10094400FFF710FE401B6428F5D9032039E1684BFA
:100954005B6813F4800FC6D1654B1B6813F0020F5C
:1009640004D0E368012B01D001202AE1604A136816
:1009740023F0F803216943EAC1031360236813F0E9
:10098400080F40D0636963B35B4B01221A60FFF721
:10099400E9FD0546564B5B6F13F0020F33D1FFF7A9
:1009A400E1FD401B0228F5D903200AE1504A1368EF
:1009B40023F0F803216943EAC1031360DEE74D4BDA
:1009C40000221A60FFF7CEFD0546494B1B6813F061
:1009D400020FD3D0FFF7C6FD401B0228F5D9032030
:1009E400EFE0454B00221A60FFF7BCFD0546404B83
:1009F4005B6F13F0020F06D0FFF7B4FD401B022813
:100A0400F5D90320DDE0236813F0040F79D0384BC7
:100A14001B6C13F0805F33D100230193344B1A6CA9
:100A240042F080521A641B6C03F080530193019BC3
:100A34000125324B1B6813F4807F23D0A368012B5C
:100A440034D0052B38D02A4B1A6F22F001021A67D2
:100A54001A6F22F004021A67A368002B36D0FFF73E
:100A640081FD0646224B1B6F13F0020F48D1FFF79E
:100A740079FD801B41F288339842F3D90320A0E02A
:100A84000025D6E71D4A136843F480731360FFF70B
:100A940069FD0646194B1B6813F4807FCED1FFF71E
:100AA40061FD801B0228F5D903208AE0104A136FE8
:100AB40043F001031367CFE70D4B1A6F42F00402B2
:100AC4001A671A6F42F001021A67C5E7FFF74AFD79
:100AD4000646074B1B6F13F0020F11D0FFF742FDC0
:100AE400801B41F288339842F3D9032069E000BFA8
:100AF4000038024000004742800E47420070004028
:100B0400E5B9A369002B5BD0304A926802F00C026D
:100B1400082A58D0022B17D02D4B00221A60FFF759
:100B240021FD0446294B1B6813F0007F42D0FFF7D8
:100B340019FD001B0228F5D9032042E0234A136C57
:100B440023F080531364DCE7214B00221A60FFF783
:100B540009FD05461D4B1B6813F0007F06D0FFF707
:100B640001FD401B0228F5D903202AE0E369226A2B
:100B74001343626A43EA8213A26A5208013A43EABF
:100B84000243E26A43EA0263104A5360104B0122B3
:100B94001A60FFF7E7FC04460C4B1B6813F0007F58
:100BA40006D1FFF7DFFC001B0228F5D9032008E07B
:100BB400002006E0002004E001207047012000E04E
:100BC400002002B070BD0120FBE700BF00380240E6
:100BD40060004742264B9B6803F00C03042B44D06F
:100BE400082B01D0234870472DE9F04B204B5A685D
:100BF40002F03F025B6813F4800F13D01C4B59685A
:100C0400C1F3881100231C48A1FB0001FFF7E0FA9F
:100C1400174B5B68C3F3014301335B00B0FBF3F094
:100C2400BDE8F08B124B5B68C3F388131E460027A4
:100C34005C010025E41A65EB0705A90141EA94610A
:100C4400A001001B61EB0501CB0043EA5073C40013
:100C5400A01943EB07018B0243EA90538402204618
:100C640019460023FFF7B4FAD2E70348704700BFE0
:100C7400003802400024F40040787D01002800F090
:100C84009D8070B504464F4B1B6803F00F038B42E5
:100C940009D2CBB24B4A1370136803F00F038B4293
:100CA40001D0012070BD236813F0020F17D013F098
:100CB400040F04D0444A936843F4E05393602368D8
:100CC40013F0080F04D0404A936843F460439360E0
:100CD4003D4A936823F0F003A068034393600D46F4
:100CE400236813F0010F32D06368012B21D09A1EC0
:100CF400012A25D9344A126812F0020F60D0324911
:100D04008A6822F0030213438B60FFF72BFC06462C
:100D14002D4B9B6803F00C036268B3EB820F16D073
:100D2400FFF720FC801B41F288339842F0D903205E
:100D3400B8E7254A126812F4003FE0D10120B1E778
:100D4400214A126812F0007FD9D10120AAE71D4B75
:100D54001B6803F00F03AB4209D9EAB2194B1A70AE
:100D64001B6803F00F03AB4201D001209AE723680C
:100D740013F0040F06D0144A936823F4E053E16897
:100D84000B439360236813F0080F07D00E4A93684F
:100D940023F46043216943EAC1039360FFF71AFF18
:100DA400094B9B68C3F30313084AD35CD840084B30
:100DB40018600020FFF78CFB002073E701207047C8
:100DC40001206FE7003C0240003802404820000840
:100DD40008000020014B1868704700BF080000207D
:100DE40008B5FFF7F7FF044B9B68C3F38223034A5C
:100DF400D35CD84008BD00BF00380240582000082A
:100E040008B5FFF7E7FF044B9B68C3F34233034A7B
:100E1400D35CD84008BD00BF003802405820000809
:100E2400F8B505460F4616461C463BE02CB1FFF7C5
:100E340099FB069BC01AA04234D32A68536823F056
:100E4400E00353606B68B3F5827F0BD0AB6AB3F5F4
:100E5400005F14D0012385F85130002385F8503009
:100E6400032027E0AB68B3F5004F02D0B3F5806FE1
:100E7400ECD12A68136823F040031360E6E72A687C
:100E8400136823F400531B041B0C13602A681368B3
:100E940043F400531360DDE70123B34209D0B4F1F6
:100EA400FF3FC3D12B689B6837EA0303F4D00023C8
:100EB400F3E70020F8BD10B582B0044600920B465B
:100EC40000228021FFF7ACFF034610B9184602B098
:100ED40010BD636D43F0200363650323F6E7002828
:100EE4003BD010B504460023836290F85130002BA8
:100EF4002ED0022384F851302268136823F0400373
:100F040013606368A2681343E268134322691343BE
:100F140062691343A26902F400721343E269134342
:100F2400226A1343A16A22680B431360638B03F0A4
:100F34000403616A22680B4353602268D36923F473
:100F44000063D36100206065012384F8513010BD33
:100F540080F8503000F08AFFCBE7012070472DE97C
:100F6400F04184B01E4690F85030012B00F0C88048
:100F740004460D469046012380F85030FFF7F2FAFC
:100F8400074694F85130DBB2012B0AD00223012228
:100F940084F85120002284F85020184604B0BDE89B
:100FA400F081002D00F0A480B8F1000F00F0A280C1
:100FB400032384F85130002363652563A4F8348047
:100FC400A4F83680A363A387E38763642364A368D8
:100FD400B3F5004F1BD023681A6812F0400F03D1F9
:100FE4001A6842F040021A60E368B3F5006F14D047
:100FF40063681BB1E38E9BB2012B3ED1236815F8C5
:10100400012B1A73E38E013B9BB2E38635E0226821
:10101400136843F480431360DDE763681BB1E38E18
:101024009BB2012B0DD1236835F8022BDA60E38ED5
:10103400013B9BB2E38604E0002E5DD0B6F1FF3F96
:101044000FD1E38E9BB27BB323689A6812F0020F30
:10105400F2D035F8022BDA60E38E013B9BB2E386D3
:10106400EFE7FFF77FFAC01BB042EAD303238EE712
:10107400002E43D0B6F1FF3F0FD1E38E9BB29BB15C
:1010840023689A6812F0020FF2D015F8012B1A7334
:10109400E38E013B9BB2E386EFE7FFF763FAC01BE5
:1010A400B042EAD3032372E70097334601220221B8
:1010B4002046FFF7B5FE08B1032368E73A463146F8
:1010C4002046FFF7F8FE034618B120236365012389
:1010D4005DE7A26832B903922268D16803919268ED
:1010E4000392039A626D002A3FF451AF01234EE745
:1010F40001234CE701234AE7032348E7032346E798
:1011040002234AE72DE9F04385B099460C9D90F8F7
:101114005030012B00F0108104460F46164601237F
:1011240080F85030FFF71EFA804694F85130DBB255
:101134006268012B15D0B2F5827F0AD00223012206
:1011440084F85120002284F85020184605B0BDE8E8
:10115400F083A268002A40F0E780042B01D0022328
:10116400EDE7002F00F0E280002E00F0E180B9F1FD
:10117400000F00F0DF8094F85130DBB2012B2BD04C
:1011840000236365A663A4F83E90A4F83C9027630B
:10119400A4F83690A4F834902364636423681A682E
:1011A40012F0400F03D11A6842F040021A60E3685B
:1011B400B3F5006F14D063681BB1E38E9BB2012BAF
:1011C40007D1236817F8012B1A73E38E013B9BB2F6
:1011D400E3864FF0010961E0052384F85130CFE73D
:1011E40063681BB1E38E9BB2012B07D1236837F8E8
:1011F400022BDA60E38E013B9BB2E3864FF00109D8
:1012040013E0E38F9BB26BB123689A6812F0010F6D
:1012140008D0DB6826F8023BE38F013B9BB2E387EF
:101224004FF00109B5F1FF3F1CD1E38E9BB21BB90E
:10123400E38F9BB2002B55D0B9F1000FE1D0E38EC0
:101244009BB2002BDDD023689A6812F0020FD8D02D
:1012540037F8022BDA60E38E013B9BB2E3864FF052
:101264000009CEE7FFF77EF9A0EB0800A842DCD323
:10127400032364E7E38F9BB26BB123689A6812F08F
:10128400010F08D0DB683370E38F013B9BB2E38727
:1012940001364FF00109B5F1FF3F1BD1E38E9BB23C
:1012A40013B9E38F9BB2EBB1B9F1000FE2D0E38E37
:1012B4009BB2002BDED023689A6812F0020FD9D0BB
:1012C4003A781A73E38E013B9BB2E38601374FF001
:1012D4000009CFE7FFF746F9A0EB0800A842DDD3E9
:1012E40003232CE7CDF800802B460122022120465F
:1012F400FFF796FD08B1032321E74246294620461D
:10130400FFF7D9FD034618B120236365012316E7CF
:10131400A268002A7FF413AF03922268D168039174
:1013240092680392039A0AE7022308E7012306E777
:10133400012304E7012302E7022306E72DE9F04134
:1013440082B004460D4617461E464368B3F5827FB5
:1013540019D094F85030012B00F0A280012384F8B6
:101364005030FFF7FFF8804694F85130DBB2012B80
:1013740015D00220012384F85130002384F8503022
:1013840002B0BDE8F0818368002BE2D1042380F829
:101394005130009613460A46FFF7B4FEF0E7002DDD
:1013A40074D0002F74D0042384F851300023636573
:1013B400A563A787E7872363A386E386236463641F
:1013C400A368B3F5004F0BD023681A6812F0400FDE
:1013D40003D11A6842F040021A60E3685BB128E066
:1013E4002268136823F480431360EDE7002E51D084
:1013F400B6F1FF3F10D1E38F9BB2002B31D02368AD
:101404009A6812F0010FF1D01B7B05F8013BE38FC2
:10141400013B9BB2E387EEE7FFF7A4F8A0EB0800DB
:10142400B042E8D30320A5E7002E35D0B6F1FF3F44
:101434000FD1E38F9BB2A3B123689A6812F0010F16
:10144400F2D0DB6825F8023BE38F013B9BB2E387D4
:10145400EFE7FFF787F8A0EB0800B042E9D30320D9
:1014640088E76368B3F5827F03D0636DB3B9002066
:1014740080E7A368B3F5004F02D0B3F5806FF4D1D1
:101484002268136823F040031360EEE7012071E73C
:1014940001206FE703206DE703206BE7012069E774
:1014A40002206DE72DE9F843044601680A6922F435
:1014B4004052C36813430B610168CA6822F41642A0
:1014C40022F00C0283680069034360690343E06906
:1014D40003431343CB6021684A6922F44072A36931
:1014E40013434B61E369B3F5004F60D02368B84AF6
:1014F400934200F0148102F58062934200F00F8160
:10150400FFF76EFC00EB800000EB80006568AD0027
:10151400B0FBF5F5AF4FA7FB05356D092E01FFF7BD
:101524005FFC00EB800000EB80006568AD00B0FB61
:10153400F5F9FFF755FC00EB800000EB80006568CF
:10154400AD00B0FBF5F5A7FB05356D094FF0640858
:1015540008FB15952D013235A7FB05356D0905F0FE
:10156400F0053544FFF73CFC00EB800000EB800005
:101574006668B600B0FBF6F6FFF732FC00EB8000BD
:1015840000EB800063689B00B0FBF3F0A7FB003026
:10159400400908FB10684FEA081808F13208A7FB55
:1015A4000837C7F3431723682F449F600DE123686E
:1015B400874A93425BD002F58062934257D0FFF78B
:1015C4000FFC00EB800000EB800065686D00B0FB51
:1015D400F5F5804FA7FB05356D092E01FFF700FCDB
:1015E40000EB800000EB800065686D00B0FBF5F94E
:1015F400FFF7F6FB00EB800000EB800065686D00F0
:10160400B0FBF5F5A7FB05356D094FF0640808FB41
:101614001595ED003235A7FB05356D096D0005F410
:10162400F8753544FFF7DCFB00EB800000EB80002D
:1016340066687600B0FBF6F6FFF7D2FB00EB80009D
:1016440000EB800063685B00B0FBF3F3A7FB0323AC
:101654005B0908FB13684FEAC80808F13208A7FBC6
:101664000837C7F3421723682F449F60ADE0FFF7A4
:10167400C7FB00EB800000EB800065686D00B0FBE9
:10168400F5F5544FA7FB05356D092E01FFF7B8FB9F
:1016940000EB800000EB800065686D00B0FBF5F99D
:1016A400FFF7AEFB00EB800000EB800065686D0087
:1016B400B0FBF5F5A7FB05356D094FF0640808FB91
:1016C4001595ED003235A7FB05356D096D0005F460
:1016D400F8753544FFF794FB00EB800000EB8000C5
:1016E40066687600B0FBF6F6FFF78AFB00EB800035
:1016F40000EB800063685B00B0FBF3F3A7FB0323FC
:101704005B0908FB13684FEAC80808F13208A7FB15
:101714000837C7F3421723682F449F6055E0FFF74B
:101724006FFB00EB800000EB80006568AD00B0FB50
:10173400F5F5284FA7FB05356D092E01FFF760FB72
:1017440000EB800000EB80006568AD00B0FBF5F9AC
:10175400FFF756FB00EB800000EB80006568AD00EE
:10176400B0FBF5F5A7FB05356D094FF0640808FBE0
:1017740015952D013235A7FB05356D0905F0F005EA
:101784003544FFF73DFB00EB800000EB800066680A
:10179400B600B0FBF6F6FFF733FB00EB800000EB7E
:1017A400800063689B00B0FBF3F0A7FB00304009A6
:1017B40008FB10684FEA081808F13208A7FB08373D
:1017C400C7F3431723682F449F60BDE8F88300BF25
:1017D400001001401F85EB512DE9F04105460F46ED
:1017E40016469846069C2B681B6837EA03030CBF11
:1017F40001230023B3421DD1B4F1FF3FF3D02CB138
:10180400FEF7B0FEA0EB0800A042ECD92A68D3682A
:1018140023F4D073D3602A68536923F0010353611E
:10182400202385F8393085F83A30002385F838309C
:10183400032000E00020BDE8F08158B310B5044651
:1018440090F839300BB3242384F839302268D368F4
:1018540023F40053D3602046FFF724FE2268136963
:1018640023F4904313612268536923F02A035361DC
:101874002268D36843F40053D3600020E06320233C
:1018840084F8393084F83A3010BD80F8383000F0EC
:1018940021FBD8E7012070472DE9F04182B01E46B4
:1018A40090F83930DBB2202B55D104460D469046D2
:1018B400002955D0002A55D090F83830012B53D048
:1018C400012380F838300023C363212380F83930A2
:1018D400FEF748FE0746A4F82480A4F8268010E00A
:1018E40000963B46002280212046FFF775FF002822
:1018F4003CD12B882268C3F3080353602369C3B91E
:101904000235E38C9BB2B3B1E38C013B9BB2E3841D
:10191400A368B3F5805FE3D000963B4600228021A4
:101924002046FFF759FF18BB2A7823685A6001350F
:10193400E7E70135E5E700963B46002240212046D3
:10194400FFF74AFF0346A8B9202284F83920002271
:1019540084F8382000E00223184602B0BDE8F08184
:101964000123F9E70123F7E70223F5E70323F3E76C
:101974000323F1E70323EFE72DE9F04182B01E468C
:1019840090F83A30DBB2202B5AD104460D469046EB
:10199400002959D0002A59D090F83830012B57D05B
:1019A400012380F838300023C363222380F83A30BF
:1019B400FEF7D8FD0746A4F82C80A4F82E801DE07D
:1019C40000963B46002220212046FFF705FF002811
:1019D40040D1236933B923685B68C3F3080325F84E
:1019E400023B0BE023685B68DBB225F8013B05E0B2
:1019F40023685B6803F07F032B700135E38D9BB292
:101A0400BBB1E38D013B9BB2E385A368B3F5805F73
:101A1400D6D000963B46002220212046FFF7DCFE6C
:101A2400D0B92369002BE3D123685B682B7001359F
:101A3400E4E7202384F83A30002084F8380000E0FA
:101A4400022002B0BDE8F0810120FAE70120F8E7A6
:101A54000220F6E70320F4E70320F2E730B589B06B
:101A6400002400941D4B1A6B42F004021A631A6B93
:101A740002F004020092009A01941A6B42F00102EF
:101A84001A631A6B02F001020192019A02941A6B12
:101A940042F002021A631B6B03F002030293029BDF
:101AA4000F4D01224FF440712846FEF7C0FE224636
:101AB40020212846FEF7BBFE4FF44873039301230D
:101AC40004930594069403A92846FEF7D7FD03A9B9
:101AD4002846FEF7D3FD09B030BD00BF00380240F0
:101AE40000000240FEE7000008B50B480B4B036002
:101AF4004FF4E133436000238360C36003610C222D
:101B040042618361C361FFF798FE00B908BD4FF4D9
:101B140088710348FFF7E6FF84000020004400407A
:101B24006020000808B50D480D4B03604FF4827324
:101B3400436000238360C360036143618361C361C5
:101B44000362436283620A23C362FFF7C8F900B9E0
:101B540008BDFD210348FFF7C5FF00BF2C0000208E
:101B6400003800406020000800B595B000220192C2
:101B7400244B196C41F0805119641B6C03F08053A1
:101B84000193019B029220490B6823F4404343F4E0
:101B940000430B600B6803F440430293029B02234F
:101BA400089301230B9310230C930E9208A8FEF7BD
:101BB40045FEF0B90F23039300210491059106918A
:101BC400079103A8FFF75AF8B8B9FFF703F90F4BC9
:101BD400A3FB00308009FEF725FD0420FEF738FD45
:101BE400002211464FF0FF30FEF7E8FC15B05DF817
:101BF40004FBCD210648FFF775FFDB210448FFF7FE
:101C040071FF00BF0038024000700040D34D6210E5
:101C14006020000870B582B0FEF77EFCFFF7A4FFD9
:101C2400FFF71CFFFFF760FFFFF77CFF57E0624DF3
:101C3400012220212846FEF7FAFD4FF4FA70FEF740
:101C440097FC002220212846FEF7F1FD4FF4FA709C
:101C5400FEF78EFC0134B442E9DB584C4FF6FF73B7
:101C6400082257492046FFF717FE4FF6FF7301225B
:101C740054492046FFF710FE0A2301220DF1070103
:101C84005148FFF75BFB0028F6D19DF80760303E12
:101C9400002413E0484D012220212846FEF7C7FD09
:101CA4004FF4FA70FEF764FC002220212846FEF768
:101CB400BEFD4FF4FA70FEF75BFC0134B442E9DB7D
:101CC4003E4C4FF6FF73082240492046FFF7E4FDDF
:101CD4004FF6FF7301223B492046FFF7DDFD322317
:101CE4008DF807304FF6FF7301220DF107013348D9
:101CF400FFF742FE0028F5D12F4C00224FF400716B
:101D04002046FEF794FD00224FF480712046FEF732
:101D14008EFD012220212046FEF789FD0A2302229E
:101D24000DF107012848FFF71AF90028F6D14FF4FE
:101D34007A70FEF71DFC204C002220212046FEF77D
:101D440076FD1E4D4FF6FF73082221492846FFF702
:101D5400A3FD4FF6FF7301221A492846FFF79CFDA5
:101D640001224FF400712046FEF761FD01224FF479
:101D740080712046FEF75BFD4FF480511548FEF755
:101D84004FFD0028F8D0104B1A68936813689BB273
:101D940043F00403136031238DF807300A23012232
:101DA4000DF107010848FFF7C9FA0028F6D19DF89C
:101DB4000760303E00244EE700000240840000200B
:101DC400802000087C2000082C0000208C200008C3
:101DD400702000080004024010B582B00024009472
:101DE400214B5A6C42F480425A645A6C02F4804289
:101DF4000092009A01941A6C42F080521A641B6C8F
:101E040003F080530193019B0320FEF7C5FB224698
:101E140021466FF00B00FEF7D1FB224621466FF0FE
:101E24000A00FEF7CBFB224621466FF00900FEF7BD
:101E3400C5FB224621466FF00400FEF7BFFB224695
:101E440021466FF00300FEF7B9FB224621466FF0EE
:101E54000100FEF7B3FB224621464FF0FF30FEF7A8
:101E6400ADFB02B010BD00BF003802400268164B43
:101E74009A4200D07047F0B587B00024009403F56F
:101E840000331A6C42F480421A641B6C03F48043DE
:101E94000093009B0C2301930227029703940326CB
:101EA40004960525059501A90848FEF7E7FB4FF4BC
:101EB400A0530193029703940496059501A904483D
:101EC400FEF7DCFB07B0F0BD00380040000802401C
:101ED400000402400268114B9A4200D0704700B5DA
:101EE40087B0002300930E4B1A6C42F400321A643C
:101EF4001B6C03F400330093009B0C230193022317
:101F0400029301230393032304930723059301A955
:101F14000448FEF7B3FB07B05DF804FB004400403F
:101F240000380240000002407047FEE7FEE7FEE78B
:101F3400FEE770477047704708B5FEF707FBFEF7EA
:101F440098FB08BD0F49D1F8883043F47003C1F8F9
:101F540088300D4B1A6842F001021A600020986024
:101F64001A6822F0847222F480321A60074A5A6096
:101F74001A6822F480221A60D8604FF000638B60E4
:101F8400704700BF00ED00E000380240103000242C
:101F9400DFF834D0002103E00C4B5B58435004318C
:101FA4000B480C4B42189A42F6D30B4A02E000232A
:101FB40042F8043B094B9A42F9D3FFF7C3FF00F000
:101FC40011F8FFF727FE704700800120A8200008C1
:101FD400000000200C0000200C000020C4000020A1
:101FE400FEE7000070B50D4E0D4CA41BA410002597
:101FF400A54209D10B4E0C4C00F018F8A41BA410F8
:102004000025A54205D170BD56F825309847013505
:10201400EEE756F8253098470135F2E7A02000088E
:10202400A0200008A0200008A4200008F8B500BFE4
:10203400F8BC08BC9E467047F8B500BFF8BC08BCA5
:042044009E467047FD
:102048000000000000000000010203040607080960
:1020580000000000010203042E2E2F5372632F6D1F
:1020680061696E2E630000004D3120446F6E652E4D
:10207800000000000A0000004D3220446F6E652EFB
:10208800000000004D3320446F6E652E00000000F4
:082098006CE1FF7F0100000074
:0420A000B90100087A
:0420A400950100089A
:0C20A80001000000100000000024F40003
:0400000508001F953B
:00000001FF
